{
  "_format": "hh-sol-artifact-1",
  "contractName": "Creator",
  "sourceName": "contracts/Creator.sol",
  "abi": [
    {
      "inputs": [],
      "stateMutability": "nonpayable",
      "type": "constructor"
    },
    {
      "anonymous": false,
      "inputs": [
        {
          "indexed": true,
          "internalType": "address",
          "name": "account",
          "type": "address"
        },
        {
          "indexed": true,
          "internalType": "address",
          "name": "operator",
          "type": "address"
        },
        {
          "indexed": false,
          "internalType": "bool",
          "name": "approved",
          "type": "bool"
        }
      ],
      "name": "ApprovalForAll",
      "type": "event"
    },
    {
      "anonymous": false,
      "inputs": [
        {
          "indexed": true,
          "internalType": "address",
          "name": "previousOwner",
          "type": "address"
        },
        {
          "indexed": true,
          "internalType": "address",
          "name": "newOwner",
          "type": "address"
        }
      ],
      "name": "OwnershipTransferred",
      "type": "event"
    },
    {
      "anonymous": false,
      "inputs": [
        {
          "indexed": true,
          "internalType": "address",
          "name": "operator",
          "type": "address"
        },
        {
          "indexed": true,
          "internalType": "address",
          "name": "from",
          "type": "address"
        },
        {
          "indexed": true,
          "internalType": "address",
          "name": "to",
          "type": "address"
        },
        {
          "indexed": false,
          "internalType": "uint256[]",
          "name": "ids",
          "type": "uint256[]"
        },
        {
          "indexed": false,
          "internalType": "uint256[]",
          "name": "values",
          "type": "uint256[]"
        }
      ],
      "name": "TransferBatch",
      "type": "event"
    },
    {
      "anonymous": false,
      "inputs": [
        {
          "indexed": true,
          "internalType": "address",
          "name": "operator",
          "type": "address"
        },
        {
          "indexed": true,
          "internalType": "address",
          "name": "from",
          "type": "address"
        },
        {
          "indexed": true,
          "internalType": "address",
          "name": "to",
          "type": "address"
        },
        {
          "indexed": false,
          "internalType": "uint256",
          "name": "id",
          "type": "uint256"
        },
        {
          "indexed": false,
          "internalType": "uint256",
          "name": "value",
          "type": "uint256"
        }
      ],
      "name": "TransferSingle",
      "type": "event"
    },
    {
      "anonymous": false,
      "inputs": [
        {
          "indexed": false,
          "internalType": "string",
          "name": "value",
          "type": "string"
        },
        {
          "indexed": true,
          "internalType": "uint256",
          "name": "id",
          "type": "uint256"
        }
      ],
      "name": "URI",
      "type": "event"
    },
    {
      "anonymous": false,
      "inputs": [
        {
          "indexed": false,
          "internalType": "string",
          "name": "_token",
          "type": "string"
        },
        {
          "indexed": true,
          "internalType": "address",
          "name": "_contributor",
          "type": "address"
        },
        {
          "indexed": false,
          "internalType": "uint256",
          "name": "_reward",
          "type": "uint256"
        }
      ],
      "name": "contributionData",
      "type": "event"
    },
    {
      "anonymous": false,
      "inputs": [
        {
          "indexed": false,
          "internalType": "string",
          "name": "_token",
          "type": "string"
        },
        {
          "indexed": false,
          "internalType": "address",
          "name": "_creator",
          "type": "address"
        },
        {
          "indexed": false,
          "internalType": "uint256",
          "name": "_amount",
          "type": "uint256"
        }
      ],
      "name": "contributionWithdrawalData",
      "type": "event"
    },
    {
      "anonymous": false,
      "inputs": [
        {
          "indexed": true,
          "internalType": "address",
          "name": "_creator",
          "type": "address"
        },
        {
          "indexed": false,
          "internalType": "uint256",
          "name": "_valuation",
          "type": "uint256"
        },
        {
          "indexed": false,
          "internalType": "uint256",
          "name": "_totalContribution",
          "type": "uint256"
        },
        {
          "indexed": false,
          "internalType": "bool",
          "name": "_isMinted",
          "type": "bool"
        },
        {
          "indexed": false,
          "internalType": "uint256",
          "name": "_contributorsCount",
          "type": "uint256"
        },
        {
          "indexed": false,
          "internalType": "uint256",
          "name": "_id",
          "type": "uint256"
        },
        {
          "indexed": false,
          "internalType": "uint256",
          "name": "_balance",
          "type": "uint256"
        }
      ],
      "name": "raiseData",
      "type": "event"
    },
    {
      "anonymous": false,
      "inputs": [
        {
          "indexed": false,
          "internalType": "uint256",
          "name": "_value",
          "type": "uint256"
        },
        {
          "indexed": true,
          "internalType": "address",
          "name": "_destination",
          "type": "address"
        }
      ],
      "name": "withdrawProfit",
      "type": "event"
    },
    {
      "inputs": [
        {
          "internalType": "address",
          "name": "account",
          "type": "address"
        },
        {
          "internalType": "uint256",
          "name": "id",
          "type": "uint256"
        }
      ],
      "name": "balanceOf",
      "outputs": [
        {
          "internalType": "uint256",
          "name": "",
          "type": "uint256"
        }
      ],
      "stateMutability": "view",
      "type": "function"
    },
    {
      "inputs": [
        {
          "internalType": "address[]",
          "name": "accounts",
          "type": "address[]"
        },
        {
          "internalType": "uint256[]",
          "name": "ids",
          "type": "uint256[]"
        }
      ],
      "name": "balanceOfBatch",
      "outputs": [
        {
          "internalType": "uint256[]",
          "name": "",
          "type": "uint256[]"
        }
      ],
      "stateMutability": "view",
      "type": "function"
    },
    {
      "inputs": [
        {
          "internalType": "string",
          "name": "tokenSymbol",
          "type": "string"
        }
      ],
      "name": "contribute",
      "outputs": [],
      "stateMutability": "payable",
      "type": "function"
    },
    {
      "inputs": [
        {
          "internalType": "string",
          "name": "tokenSymbol",
          "type": "string"
        }
      ],
      "name": "getCreator",
      "outputs": [
        {
          "internalType": "address",
          "name": "",
          "type": "address"
        }
      ],
      "stateMutability": "view",
      "type": "function"
    },
    {
      "inputs": [
        {
          "internalType": "string",
          "name": "tokenSymbol",
          "type": "string"
        }
      ],
      "name": "getMaximumTokenSupply",
      "outputs": [
        {
          "internalType": "string",
          "name": "",
          "type": "string"
        }
      ],
      "stateMutability": "view",
      "type": "function"
    },
    {
      "inputs": [
        {
          "internalType": "string",
          "name": "tokenSymbol",
          "type": "string"
        }
      ],
      "name": "getTokenContributions",
      "outputs": [
        {
          "internalType": "uint256",
          "name": "",
          "type": "uint256"
        }
      ],
      "stateMutability": "view",
      "type": "function"
    },
    {
      "inputs": [
        {
          "internalType": "string",
          "name": "tokenSymbol",
          "type": "string"
        }
      ],
      "name": "getTokenContributorsCount",
      "outputs": [
        {
          "internalType": "uint256",
          "name": "",
          "type": "uint256"
        }
      ],
      "stateMutability": "view",
      "type": "function"
    },
    {
      "inputs": [
        {
          "internalType": "string",
          "name": "tokenSymbol",
          "type": "string"
        }
      ],
      "name": "getValuation",
      "outputs": [
        {
          "internalType": "uint256",
          "name": "",
          "type": "uint256"
        }
      ],
      "stateMutability": "view",
      "type": "function"
    },
    {
      "inputs": [
        {
          "internalType": "address",
          "name": "account",
          "type": "address"
        },
        {
          "internalType": "address",
          "name": "operator",
          "type": "address"
        }
      ],
      "name": "isApprovedForAll",
      "outputs": [
        {
          "internalType": "bool",
          "name": "",
          "type": "bool"
        }
      ],
      "stateMutability": "view",
      "type": "function"
    },
    {
      "inputs": [],
      "name": "owner",
      "outputs": [
        {
          "internalType": "address",
          "name": "",
          "type": "address"
        }
      ],
      "stateMutability": "view",
      "type": "function"
    },
    {
      "inputs": [
        {
          "internalType": "string",
          "name": "tokenSymbol",
          "type": "string"
        },
        {
          "internalType": "uint256",
          "name": "_valuation",
          "type": "uint256"
        },
        {
          "internalType": "uint256",
          "name": "tokenSupply",
          "type": "uint256"
        }
      ],
      "name": "raise",
      "outputs": [],
      "stateMutability": "payable",
      "type": "function"
    },
    {
      "inputs": [],
      "name": "renounceOwnership",
      "outputs": [],
      "stateMutability": "nonpayable",
      "type": "function"
    },
    {
      "inputs": [
        {
          "internalType": "address",
          "name": "from",
          "type": "address"
        },
        {
          "internalType": "address",
          "name": "to",
          "type": "address"
        },
        {
          "internalType": "uint256[]",
          "name": "ids",
          "type": "uint256[]"
        },
        {
          "internalType": "uint256[]",
          "name": "amounts",
          "type": "uint256[]"
        },
        {
          "internalType": "bytes",
          "name": "data",
          "type": "bytes"
        }
      ],
      "name": "safeBatchTransferFrom",
      "outputs": [],
      "stateMutability": "nonpayable",
      "type": "function"
    },
    {
      "inputs": [
        {
          "internalType": "address",
          "name": "from",
          "type": "address"
        },
        {
          "internalType": "address",
          "name": "to",
          "type": "address"
        },
        {
          "internalType": "uint256",
          "name": "id",
          "type": "uint256"
        },
        {
          "internalType": "uint256",
          "name": "amount",
          "type": "uint256"
        },
        {
          "internalType": "bytes",
          "name": "data",
          "type": "bytes"
        }
      ],
      "name": "safeTransferFrom",
      "outputs": [],
      "stateMutability": "nonpayable",
      "type": "function"
    },
    {
      "inputs": [
        {
          "internalType": "address",
          "name": "operator",
          "type": "address"
        },
        {
          "internalType": "bool",
          "name": "approved",
          "type": "bool"
        }
      ],
      "name": "setApprovalForAll",
      "outputs": [],
      "stateMutability": "nonpayable",
      "type": "function"
    },
    {
      "inputs": [
        {
          "internalType": "bytes4",
          "name": "interfaceId",
          "type": "bytes4"
        }
      ],
      "name": "supportsInterface",
      "outputs": [
        {
          "internalType": "bool",
          "name": "",
          "type": "bool"
        }
      ],
      "stateMutability": "view",
      "type": "function"
    },
    {
      "inputs": [
        {
          "internalType": "uint256",
          "name": "_amount",
          "type": "uint256"
        },
        {
          "internalType": "address payable",
          "name": "_destAddr",
          "type": "address"
        }
      ],
      "name": "takeProfit",
      "outputs": [],
      "stateMutability": "nonpayable",
      "type": "function"
    },
    {
      "inputs": [],
      "name": "totalContributions",
      "outputs": [
        {
          "internalType": "uint256",
          "name": "",
          "type": "uint256"
        }
      ],
      "stateMutability": "view",
      "type": "function"
    },
    {
      "inputs": [],
      "name": "totalContributors",
      "outputs": [
        {
          "internalType": "uint256",
          "name": "",
          "type": "uint256"
        }
      ],
      "stateMutability": "view",
      "type": "function"
    },
    {
      "inputs": [],
      "name": "totalTokens",
      "outputs": [
        {
          "internalType": "uint256",
          "name": "",
          "type": "uint256"
        }
      ],
      "stateMutability": "view",
      "type": "function"
    },
    {
      "inputs": [
        {
          "internalType": "address",
          "name": "newOwner",
          "type": "address"
        }
      ],
      "name": "transferOwnership",
      "outputs": [],
      "stateMutability": "nonpayable",
      "type": "function"
    },
    {
      "inputs": [
        {
          "internalType": "uint256",
          "name": "",
          "type": "uint256"
        }
      ],
      "name": "uri",
      "outputs": [
        {
          "internalType": "string",
          "name": "",
          "type": "string"
        }
      ],
      "stateMutability": "view",
      "type": "function"
    },
    {
      "inputs": [
        {
          "internalType": "uint256",
          "name": "_amount",
          "type": "uint256"
        },
        {
          "internalType": "string",
          "name": "_tokenSymbol",
          "type": "string"
        }
      ],
      "name": "withdrawContribution",
      "outputs": [],
      "stateMutability": "payable",
      "type": "function"
    },
    {
      "stateMutability": "payable",
      "type": "receive"
    }
  ],
  "bytecode": "0x60806040523480156200001157600080fd5b506040518060600160405280602a815260200162002c34602a913962000037816200006f565b50620000433362000088565b600480546001600160a01b03191673ab594600376ec9fd91f8e885dadf0ce036862de0179055620001bd565b805162000084906002906020840190620000da565b5050565b600380546001600160a01b038381166001600160a01b0319831681179093556040519116919082907f8be0079c531659141344cd1fd0a4f28419497f9722a3daafe3b4186f6b6457e090600090a35050565b828054620000e89062000180565b90600052602060002090601f0160209004810192826200010c576000855562000157565b82601f106200012757805160ff191683800117855562000157565b8280016001018555821562000157579182015b82811115620001575782518255916020019190600101906200013a565b506200016592915062000169565b5090565b5b808211156200016557600081556001016200016a565b600181811c908216806200019557607f821691505b60208210811415620001b757634e487b7160e01b600052602260045260246000fd5b50919050565b612a6780620001cd6000396000f3fe6080604052600436106101435760003560e01c80636b5adc72116100b6578063af0b77c61161006f578063af0b77c61461037a578063c7ac97121461039a578063e985e9c5146103ba578063f242432a14610403578063f251fc8c14610423578063f2fde38b1461043957600080fd5b80636b5adc72146102bd578063715018a6146102dd5780637e1c0c09146102f25780638da5cb5b14610308578063917a3f761461033a578063a22cb4651461035a57600080fd5b80632eb2c2d6116101085780632eb2c2d61461021457806337c08923146102345780634e1273f41461024a5780635c43217b146102775780635f3783821461028a57806364a5527c1461029d57600080fd5b8062fdd58e1461014f57806301ffc9a71461018257806306cb0d6f146101b25780630e89341c146101c75780631ac54da2146101f457600080fd5b3661014a57005b600080fd5b34801561015b57600080fd5b5061016f61016a366004611fd3565b610459565b6040519081526020015b60405180910390f35b34801561018e57600080fd5b506101a261019d366004612015565b6104f0565b6040519015158152602001610179565b6101c56101c03660046120e9565b610542565b005b3480156101d357600080fd5b506101e76101e2366004612137565b6109b8565b60405161017991906121ac565b34801561020057600080fd5b506101e761020f3660046121bf565b610a4c565b34801561022057600080fd5b506101c561022f366004612291565b610ad7565b34801561024057600080fd5b5061016f60055481565b34801561025657600080fd5b5061026a61026536600461233f565b610b6e565b6040516101799190612447565b6101c56102853660046121bf565b610c98565b6101c561029836600461245a565b61102e565b3480156102a957600080fd5b5061016f6102b83660046121bf565b61129c565b3480156102c957600080fd5b5061016f6102d83660046121bf565b6112c7565b3480156102e957600080fd5b506101c56112f2565b3480156102fe57600080fd5b5061016f60075481565b34801561031457600080fd5b506003546001600160a01b03165b6040516001600160a01b039091168152602001610179565b34801561034657600080fd5b506101c5610355366004612497565b611328565b34801561036657600080fd5b506101c56103753660046124c7565b61147e565b34801561038657600080fd5b506103226103953660046121bf565b61148d565b3480156103a657600080fd5b5061016f6103b53660046121bf565b6114be565b3480156103c657600080fd5b506101a26103d53660046124fa565b6001600160a01b03918216600090815260016020908152604080832093909416825291909152205460ff1690565b34801561040f57600080fd5b506101c561041e366004612528565b6114e9565b34801561042f57600080fd5b5061016f60065481565b34801561044557600080fd5b506101c5610454366004612591565b611570565b60006001600160a01b0383166104ca5760405162461bcd60e51b815260206004820152602b60248201527f455243313135353a2062616c616e636520717565727920666f7220746865207a60448201526a65726f206164647265737360a81b60648201526084015b60405180910390fd5b506000908152602081815260408083206001600160a01b03949094168352929052205490565b60006001600160e01b03198216636cdb3d1360e11b148061052157506001600160e01b031982166303a24d0760e21b145b8061053c57506301ffc9a760e01b6001600160e01b03198316145b92915050565b600a8360405161055291906125ae565b9081526040519081900360200190206003015460ff16156105ad5760405162461bcd60e51b8152602060048201526015602482015274151bdad95b88185b1c9958591e4818dc99585d1959605a1b60448201526064016104c1565b670de0b6b3a76400006105be61160b565b6105c890346125e0565b6105d29190612615565b6009556040513390600a906105e89086906125ae565b90815260405190819003602001812080546001600160a01b03939093166001600160a01b0319909316929092179091558290600a906106289086906125ae565b908152602001604051809103902060010181905550600954600a8460405161065091906125ae565b9081526020016040518091039020600201819055506001600a8460405161067791906125ae565b908152604051908190036020018120600301805492151560ff199093169290921790915560075490600a906106ad9086906125ae565b90815260200160405180910390206005018190555080600a846040516106d391906125ae565b9081526040519081900360200190206007015534156107ca576001600a846040516106fe91906125ae565b9081526020016040518091039020600401600082825461071e9190612629565b925050819055506001600660008282546107389190612629565b909155505060095460058054600090610752908490612629565b9091555050600954604051600a9061076b9086906125ae565b9081526020016040518091039020600101600082825461078b9190612629565b9091555050600954604051600a906107a49086906125ae565b908152602001604051809103902060060160008282546107c49190612629565b90915550505b6001600760008282546107dd9190612629565b9091555050604051600a906107f39085906125ae565b90815260200160405180910390206001015460001415610874576305f5e100600954606461082191906125e0565b61082b9190612615565b60088190555061086f33600a8560405161084591906125ae565b908152602001604051809103902060050154600854604051806020016040528060008152506116a9565b6108e2565b6305f5e100600a8460405161088991906125ae565b908152604051908190036020019020600101546009546108a990806125e0565b6108b49060646125e0565b6108be9190612615565b6108c89190612615565b6008819055506108e233600a8560405161084591906125ae565b336001600160a01b03167f2b70fde2c519394a0df0430cffbde43593fd48241f40ca272a7ab8f7f48680e8836009546001600a8860405161092391906125ae565b908152602001604051809103902060040154600a8960405161094591906125ae565b908152602001604051809103902060050154600a8a60405161096791906125ae565b908152604051908190036020018120600601546109ab969594939291958652602086019490945291151560408501526060840152608083015260a082015260c00190565b60405180910390a2505050565b6060600280546109c790612641565b80601f01602080910402602001604051908101604052809291908181526020018280546109f390612641565b8015610a405780601f10610a1557610100808354040283529160200191610a40565b820191906000526020600020905b815481529060010190602001808311610a2357829003601f168201915b50505050509050919050565b606080600a83604051610a5f91906125ae565b90815260200160405180910390206007015460001415610aa0575050604080518082019091526009815268155b9b1a5b5a5d195960ba1b6020820152919050565b610aca600a84604051610ab391906125ae565b9081526020016040518091039020600701546117b3565b9392505050565b50919050565b6001600160a01b038516331480610af35750610af385336103d5565b610b5a5760405162461bcd60e51b815260206004820152603260248201527f455243313135353a207472616e736665722063616c6c6572206973206e6f74206044820152711bdddb995c881b9bdc88185c1c1c9bdd995960721b60648201526084016104c1565b610b678585858585611911565b5050505050565b60608151835114610bd35760405162461bcd60e51b815260206004820152602960248201527f455243313135353a206163636f756e747320616e6420696473206c656e677468604482015268040dad2e6dac2e8c6d60bb1b60648201526084016104c1565b6000835167ffffffffffffffff811115610bef57610bef612032565b604051908082528060200260200182016040528015610c18578160200160208202803683370190505b50905060005b8451811015610c9057610c63858281518110610c3c57610c3c612676565b6020026020010151858381518110610c5657610c56612676565b6020026020010151610459565b828281518110610c7557610c75612676565b6020908102919091010152610c898161268c565b9050610c1e565b509392505050565b600a81604051610ca891906125ae565b9081526040519081900360200190206003015460ff161515600114610d035760405162461bcd60e51b8152602060048201526011602482015270151bdad95b881b9bdd0818dc99585d1959607a1b60448201526064016104c1565b670de0b6b3a7640000610d1461160b565b610d1e90346125e0565b610d289190612615565b6009819055604051600a90610d3e9084906125ae565b90815260200160405180910390206002016000828254610d5e9190612629565b9091555050600954604051600a90610d779084906125ae565b90815260200160405180910390206001016000828254610d979190612629565b9091555050600954604051600a90610db09084906125ae565b90815260200160405180910390206006016000828254610dd09190612629565b909155505060095460058054600090610dea908490612629565b90915550503415610fee576001600a82604051610e0791906125ae565b90815260200160405180910390206004016000828254610e279190612629565b92505081905550600160066000828254610e419190612629565b9091555050604051600a90610e579083906125ae565b90815260200160405180910390206001015460001415610f17576305f5e1006009546064610e8591906125e0565b610e8f9190612615565b600855604051600a90610ea39083906125ae565b9081526020016040518091039020600701546008541115610efe5760405162461bcd60e51b8152602060048201526015602482015274151bdad95b881cdd5c1c1b1e48195e18d959591959605a1b60448201526064016104c1565b610f1233600a8360405161084591906125ae565b610fee565b6305f5e100600a82604051610f2c91906125ae565b90815260405190819003602001902060010154600954610f4c90806125e0565b610f579060646125e0565b610f619190612615565b610f6b9190612615565b600855604051600a90610f7f9083906125ae565b9081526020016040518091039020600701546008541115610fda5760405162461bcd60e51b8152602060048201526015602482015274151bdad95b881cdd5c1c1b1e48195e18d959591959605a1b60448201526064016104c1565b610fee33600a8360405161084591906125ae565b60085460405133917fcb3ca6c1eb8d4fd8328ee08e2edb620a159d3cd09dad0cdd89fd881a3e7f6f0e916110239185916126a7565b60405180910390a250565b670de0b6b3a764000061103f61160b565b61104990846125e0565b6110539190612615565b600955604051600a906110679083906125ae565b9081526040519081900360200190206003015460ff1615156001146110c25760405162461bcd60e51b8152602060048201526011602482015270151bdad95b881b9bdd0818dc99585d1959607a1b60448201526064016104c1565b336001600160a01b0316600a826040516110dc91906125ae565b908152604051908190036020019020546001600160a01b0316146111525760405162461bcd60e51b815260206004820152602760248201527f4f6e6c792063726561746f722063616e20776974686472617720636f6e747269604482015266627574696f6e7360c81b60648201526084016104c1565b6009629896806009546111659190612615565b61116f9190612615565b600a8260405161117f91906125ae565b90815260200160405180910390206006015410156111d35760405162461bcd60e51b81526020600482015260116024820152704e6f7420656e6f75676820746f6b656e7360781b60448201526064016104c1565b81600a826040516111e491906125ae565b9081526020016040518091039020600601600082825461120491906126c9565b9091555050604051600a9061121a9083906125ae565b908152604051908190036020018120546001600160a01b03169083156108fc029084906000818181858888f1935050505015801561125c573d6000803e3d6000fd5b507fbd363fb737208afe018ab1122b9b9ae649d25ad15a2b9cfa422d91920f9909f9813384604051611290939291906126e0565b60405180910390a15050565b6000600a826040516112ae91906125ae565b9081526020016040518091039020600201549050919050565b6000600a826040516112d991906125ae565b9081526020016040518091039020600101549050919050565b6003546001600160a01b0316331461131c5760405162461bcd60e51b81526004016104c19061270e565b6113266000611aee565b565b6003546001600160a01b031633146113525760405162461bcd60e51b81526004016104c19061270e565b336001600160a01b038216146113aa5760405162461bcd60e51b815260206004820152601d60248201527f4f6e6c79206f776e65722063616e2077697468647261772066756e647300000060448201526064016104c1565b60646005546113b99190612615565b8211156114005760405162461bcd60e51b8152602060048201526015602482015274105b5bdd5b9d08195e18d959591cc81c1c9bd99a5d605a1b60448201526064016104c1565b6040516001600160a01b0382169083156108fc029084906000818181858888f19350505050158015611436573d6000803e3d6000fd5b50806001600160a01b03167f18e6938570e9975e166831d20a32b2779527bbc170b3693623cbac17384a8db48360405161147291815260200190565b60405180910390a25050565b611489338383611b40565b5050565b6000600a8260405161149f91906125ae565b908152604051908190036020019020546001600160a01b031692915050565b6000600a826040516114d091906125ae565b9081526020016040518091039020600401549050919050565b6001600160a01b038516331480611505575061150585336103d5565b6115635760405162461bcd60e51b815260206004820152602960248201527f455243313135353a2063616c6c6572206973206e6f74206f776e6572206e6f7260448201526808185c1c1c9bdd995960ba1b60648201526084016104c1565b610b678585858585611c21565b6003546001600160a01b0316331461159a5760405162461bcd60e51b81526004016104c19061270e565b6001600160a01b0381166115ff5760405162461bcd60e51b815260206004820152602660248201527f4f776e61626c653a206e6577206f776e657220697320746865207a65726f206160448201526564647265737360d01b60648201526084016104c1565b61160881611aee565b50565b600080600080600080600460009054906101000a90046001600160a01b03166001600160a01b031663feaf968c6040518163ffffffff1660e01b815260040160a06040518083038186803b15801561166257600080fd5b505afa158015611676573d6000803e3d6000fd5b505050506040513d601f19601f8201168201806040525081019061169a9190612762565b50919998505050505050505050565b6001600160a01b0384166117095760405162461bcd60e51b815260206004820152602160248201527f455243313135353a206d696e7420746f20746865207a65726f206164647265736044820152607360f81b60648201526084016104c1565b336117238160008761171a88611d3e565b610b6788611d3e565b6000848152602081815260408083206001600160a01b038916845290915281208054859290611753908490612629565b909155505060408051858152602081018590526001600160a01b0380881692600092918516917fc3d58168c5ae7397731d063d5bbf3d657854427343f4c083240f7aacaa2d0f62910160405180910390a4610b6781600087878787611d89565b60408051606480825260a08201909252606091906000908260208201818036833701905050905060005b84156118475760006117f0600a876127b2565b90506117fd600a87612615565b955061180a816030612629565b60f81b83836118188161268c565b94508151811061182a5761182a612676565b60200101906001600160f81b031916908160001a905350506117dd565b60008167ffffffffffffffff81111561186257611862612032565b6040519080825280601f01601f19166020018201604052801561188c576020820181803683370190505b50905060005b828110156119075783816118a76001866126c9565b6118b191906126c9565b815181106118c1576118c1612676565b602001015160f81c60f81b8282815181106118de576118de612676565b60200101906001600160f81b031916908160001a905350806118ff8161268c565b915050611892565b5095945050505050565b81518351146119735760405162461bcd60e51b815260206004820152602860248201527f455243313135353a2069647320616e6420616d6f756e7473206c656e677468206044820152670dad2e6dac2e8c6d60c31b60648201526084016104c1565b6001600160a01b0384166119995760405162461bcd60e51b81526004016104c1906127c6565b3360005b8451811015611a805760008582815181106119ba576119ba612676565b6020026020010151905060008583815181106119d8576119d8612676565b602090810291909101810151600084815280835260408082206001600160a01b038e168352909352919091205490915081811015611a285760405162461bcd60e51b81526004016104c19061280b565b6000838152602081815260408083206001600160a01b038e8116855292528083208585039055908b16825281208054849290611a65908490612629565b9250508190555050505080611a799061268c565b905061199d565b50846001600160a01b0316866001600160a01b0316826001600160a01b03167f4a39dc06d4c0dbc64b70af90fd698a233a518aa5d07e595d983b8c0526c8f7fb8787604051611ad0929190612855565b60405180910390a4611ae6818787878787611ef4565b505050505050565b600380546001600160a01b038381166001600160a01b0319831681179093556040519116919082907f8be0079c531659141344cd1fd0a4f28419497f9722a3daafe3b4186f6b6457e090600090a35050565b816001600160a01b0316836001600160a01b03161415611bb45760405162461bcd60e51b815260206004820152602960248201527f455243313135353a2073657474696e6720617070726f76616c20737461747573604482015268103337b91039b2b63360b91b60648201526084016104c1565b6001600160a01b03838116600081815260016020908152604080832094871680845294825291829020805460ff191686151590811790915591519182527f17307eab39ab6107e8899845ad3d59bd9653f200f220920489ca2b5937696c31910160405180910390a3505050565b6001600160a01b038416611c475760405162461bcd60e51b81526004016104c1906127c6565b33611c5781878761171a88611d3e565b6000848152602081815260408083206001600160a01b038a16845290915290205483811015611c985760405162461bcd60e51b81526004016104c19061280b565b6000858152602081815260408083206001600160a01b038b8116855292528083208785039055908816825281208054869290611cd5908490612629565b909155505060408051868152602081018690526001600160a01b03808916928a821692918616917fc3d58168c5ae7397731d063d5bbf3d657854427343f4c083240f7aacaa2d0f62910160405180910390a4611d35828888888888611d89565b50505050505050565b60408051600180825281830190925260609160009190602080830190803683370190505090508281600081518110611d7857611d78612676565b602090810291909101015292915050565b6001600160a01b0384163b15611ae65760405163f23a6e6160e01b81526001600160a01b0385169063f23a6e6190611dcd9089908990889088908890600401612883565b602060405180830381600087803b158015611de757600080fd5b505af1925050508015611e17575060408051601f3d908101601f19168201909252611e14918101906128c8565b60015b611ec457611e236128e5565b806308c379a01415611e5d5750611e38612901565b80611e435750611e5f565b8060405162461bcd60e51b81526004016104c191906121ac565b505b60405162461bcd60e51b815260206004820152603460248201527f455243313135353a207472616e7366657220746f206e6f6e20455243313135356044820152732932b1b2b4bb32b91034b6b83632b6b2b73a32b960611b60648201526084016104c1565b6001600160e01b0319811663f23a6e6160e01b14611d355760405162461bcd60e51b81526004016104c19061298b565b6001600160a01b0384163b15611ae65760405163bc197c8160e01b81526001600160a01b0385169063bc197c8190611f3890899089908890889088906004016129d3565b602060405180830381600087803b158015611f5257600080fd5b505af1925050508015611f82575060408051601f3d908101601f19168201909252611f7f918101906128c8565b60015b611f8e57611e236128e5565b6001600160e01b0319811663bc197c8160e01b14611d355760405162461bcd60e51b81526004016104c19061298b565b6001600160a01b038116811461160857600080fd5b60008060408385031215611fe657600080fd5b8235611ff181611fbe565b946020939093013593505050565b6001600160e01b03198116811461160857600080fd5b60006020828403121561202757600080fd5b8135610aca81611fff565b634e487b7160e01b600052604160045260246000fd5b601f8201601f1916810167ffffffffffffffff8111828210171561206e5761206e612032565b6040525050565b600082601f83011261208657600080fd5b813567ffffffffffffffff8111156120a0576120a0612032565b6040516120b7601f8301601f191660200182612048565b8181528460208386010111156120cc57600080fd5b816020850160208301376000918101602001919091529392505050565b6000806000606084860312156120fe57600080fd5b833567ffffffffffffffff81111561211557600080fd5b61212186828701612075565b9660208601359650604090950135949350505050565b60006020828403121561214957600080fd5b5035919050565b60005b8381101561216b578181015183820152602001612153565b8381111561217a576000848401525b50505050565b60008151808452612198816020860160208601612150565b601f01601f19169290920160200192915050565b602081526000610aca6020830184612180565b6000602082840312156121d157600080fd5b813567ffffffffffffffff8111156121e857600080fd5b6121f484828501612075565b949350505050565b600067ffffffffffffffff82111561221657612216612032565b5060051b60200190565b600082601f83011261223157600080fd5b8135602061223e826121fc565b60405161224b8282612048565b83815260059390931b850182019282810191508684111561226b57600080fd5b8286015b84811015612286578035835291830191830161226f565b509695505050505050565b600080600080600060a086880312156122a957600080fd5b85356122b481611fbe565b945060208601356122c481611fbe565b9350604086013567ffffffffffffffff808211156122e157600080fd5b6122ed89838a01612220565b9450606088013591508082111561230357600080fd5b61230f89838a01612220565b9350608088013591508082111561232557600080fd5b5061233288828901612075565b9150509295509295909350565b6000806040838503121561235257600080fd5b823567ffffffffffffffff8082111561236a57600080fd5b818501915085601f83011261237e57600080fd5b8135602061238b826121fc565b6040516123988282612048565b83815260059390931b85018201928281019150898411156123b857600080fd5b948201945b838610156123df5785356123d081611fbe565b825294820194908201906123bd565b965050860135925050808211156123f557600080fd5b5061240285828601612220565b9150509250929050565b600081518084526020808501945080840160005b8381101561243c57815187529582019590820190600101612420565b509495945050505050565b602081526000610aca602083018461240c565b6000806040838503121561246d57600080fd5b82359150602083013567ffffffffffffffff81111561248b57600080fd5b61240285828601612075565b600080604083850312156124aa57600080fd5b8235915060208301356124bc81611fbe565b809150509250929050565b600080604083850312156124da57600080fd5b82356124e581611fbe565b9150602083013580151581146124bc57600080fd5b6000806040838503121561250d57600080fd5b823561251881611fbe565b915060208301356124bc81611fbe565b600080600080600060a0868803121561254057600080fd5b853561254b81611fbe565b9450602086013561255b81611fbe565b93506040860135925060608601359150608086013567ffffffffffffffff81111561258557600080fd5b61233288828901612075565b6000602082840312156125a357600080fd5b8135610aca81611fbe565b600082516125c0818460208701612150565b9190910192915050565b634e487b7160e01b600052601160045260246000fd5b60008160001904831182151516156125fa576125fa6125ca565b500290565b634e487b7160e01b600052601260045260246000fd5b600082612624576126246125ff565b500490565b6000821982111561263c5761263c6125ca565b500190565b600181811c9082168061265557607f821691505b60208210811415610ad157634e487b7160e01b600052602260045260246000fd5b634e487b7160e01b600052603260045260246000fd5b60006000198214156126a0576126a06125ca565b5060010190565b6040815260006126ba6040830185612180565b90508260208301529392505050565b6000828210156126db576126db6125ca565b500390565b6060815260006126f36060830186612180565b6001600160a01b039490941660208301525060400152919050565b6020808252818101527f4f776e61626c653a2063616c6c6572206973206e6f7420746865206f776e6572604082015260600190565b805169ffffffffffffffffffff8116811461275d57600080fd5b919050565b600080600080600060a0868803121561277a57600080fd5b61278386612743565b94506020860151935060408601519250606086015191506127a660808701612743565b90509295509295909350565b6000826127c1576127c16125ff565b500690565b60208082526025908201527f455243313135353a207472616e7366657220746f20746865207a65726f206164604082015264647265737360d81b606082015260800190565b6020808252602a908201527f455243313135353a20696e73756666696369656e742062616c616e636520666f60408201526939103a3930b739b332b960b11b606082015260800190565b604081526000612868604083018561240c565b828103602084015261287a818561240c565b95945050505050565b6001600160a01b03868116825285166020820152604081018490526060810183905260a0608082018190526000906128bd90830184612180565b979650505050505050565b6000602082840312156128da57600080fd5b8151610aca81611fff565b600060033d11156128fe5760046000803e5060005160e01c5b90565b600060443d101561290f5790565b6040516003193d81016004833e81513d67ffffffffffffffff816024840111818411171561293f57505050505090565b82850191508151818111156129575750505050505090565b843d87010160208285010111156129715750505050505090565b61298060208286010187612048565b509095945050505050565b60208082526028908201527f455243313135353a204552433131353552656365697665722072656a656374656040820152676420746f6b656e7360c01b606082015260800190565b6001600160a01b0386811682528516602082015260a0604082018190526000906129ff9083018661240c565b8281036060840152612a11818661240c565b90508281036080840152612a258185612180565b9897505050505050505056fea26469706673582212206d9d6b0f633e5ec0b13cdcf64731de022e9bcf7e28f49ee4f6da409c466efcff64736f6c6343000809003368747470733a2f2f63726561746f722e6578616d706c652f6170692f6974656d2f7b69647d2e6a736f6e",
  "linkReferences": {},
  "deployedLinkReferences": {}
}